{
  "_format": "hh-sol-artifact-1",
  "contractName": "NervosBridge",
  "sourceName": "contracts/faucet.sol",
  "abi": [
    {
      "anonymous": false,
      "inputs": [
        {
          "indexed": false,
          "internalType": "address",
          "name": "",
          "type": "address"
        },
        {
          "indexed": false,
          "internalType": "uint256",
          "name": "",
          "type": "uint256"
        }
      ],
      "name": "Received",
      "type": "event"
    },
    {
      "inputs": [],
      "name": "withDrawSomeToken",
      "outputs": [],
      "stateMutability": "nonpayable",
      "type": "function"
    },
    {
      "stateMutability": "payable",
      "type": "receive"
    }
  ],
  "bytecode": "0x6080604052683635c9adc5dea0000060015568056bc75e2d6310000060025534801561002a57600080fd5b506104868061003a6000396000f3fe6080604052600436106100225760003560e01c80636dc431f31461006757610062565b36610062577f88a5966d370b9919b20f3e2c13ff65706f196a4e32cc2c12bf57088f885258743334604051610058929190610285565b60405180910390a1005b600080fd5b34801561007357600080fd5b5061007c61007e565b005b60025447116100c2576040517f08c379a00000000000000000000000000000000000000000000000000000000081526004016100b99061030b565b60405180910390fd5b6002546001546100d2919061035a565b6000803373ffffffffffffffffffffffffffffffffffffffff1673ffffffffffffffffffffffffffffffffffffffff168152602001908152602001600020541115610152576040517f08c379a0000000000000000000000000000000000000000000000000000000008152600401610149906103da565b60405180910390fd5b3373ffffffffffffffffffffffffffffffffffffffff166108fc6002549081150290604051600060405180830381858888f1935050505015801561019a573d6000803e3d6000fd5b506002546000803373ffffffffffffffffffffffffffffffffffffffff1673ffffffffffffffffffffffffffffffffffffffff168152602001908152602001600020546101e791906103fa565b6000803373ffffffffffffffffffffffffffffffffffffffff1673ffffffffffffffffffffffffffffffffffffffff16815260200190815260200160002081905550565b600073ffffffffffffffffffffffffffffffffffffffff82169050919050565b60006102568261022b565b9050919050565b6102668161024b565b82525050565b6000819050919050565b61027f8161026c565b82525050565b600060408201905061029a600083018561025d565b6102a76020830184610276565b9392505050565b600082825260208201905092915050565b7f6e6f7420656e6f7567682062616c616e63650000000000000000000000000000600082015250565b60006102f56012836102ae565b9150610300826102bf565b602082019050919050565b60006020820190508181036000830152610324816102e8565b9050919050565b7f4e487b7100000000000000000000000000000000000000000000000000000000600052601160045260246000fd5b60006103658261026c565b91506103708361026c565b9250828210156103835761038261032b565b5b828203905092915050565b7f72656163686564206d617820616d6f756e740000000000000000000000000000600082015250565b60006103c46012836102ae565b91506103cf8261038e565b602082019050919050565b600060208201905081810360008301526103f3816103b7565b9050919050565b60006104058261026c565b91506104108361026c565b9250827fffffffffffffffffffffffffffffffffffffffffffffffffffffffffffffffff038211156104455761044461032b565b5b82820190509291505056fea2646970667358221220755da44dfc4312152c5e9affe638ae8e50ddf9a764a103c3bc0c172e995929d464736f6c63430008090033",
  "linkReferences": {},
  "deployedLinkReferences": {}
}